{
    "contractName": "FomoGame",
    "abi": [
        {
            "inputs": [],
            "stateMutability": "payable",
            "type": "constructor"
        },
        {
            "anonymous": false,
            "inputs": [
                {
                    "indexed": false,
                    "internalType": "address",
                    "name": "winner",
                    "type": "address"
                },
                {
                    "indexed": false,
                    "internalType": "uint256",
                    "name": "pay",
                    "type": "uint256"
                }
            ],
            "name": "NewWinner",
            "type": "event"
        },
        {
            "inputs": [],
            "name": "play",
            "outputs": [
                {
                    "internalType": "bool",
                    "name": "",
                    "type": "bool"
                }
            ],
            "stateMutability": "payable",
            "type": "function"
        },
        {
            "inputs": [],
            "name": "pool",
            "outputs": [
                {
                    "internalType": "uint256",
                    "name": "",
                    "type": "uint256"
                }
            ],
            "stateMutability": "view",
            "type": "function"
        },
        {
            "inputs": [
                {
                    "internalType": "address",
                    "name": "user",
                    "type": "address"
                }
            ],
            "name": "getRandomSeed",
            "outputs": [
                {
                    "internalType": "uint256",
                    "name": "",
                    "type": "uint256"
                }
            ],
            "stateMutability": "view",
            "type": "function"
        }
    ],
    "bytecode": "0x6080604052336000806101000a81548173ffffffffffffffffffffffffffffffffffffffff021916908373ffffffffffffffffffffffffffffffffffffffff160217905550610533806100536000396000f3fe6080604052600436106100345760003560e01c806316f0115b146100395780633883d8541461006457806393e84cd9146100a1575b600080fd5b34801561004557600080fd5b5061004e6100bf565b60405161005b919061034a565b60405180910390f35b34801561007057600080fd5b5061008b60048036038101906100869190610256565b6100c7565b604051610098919061034a565b60405180910390f35b6100a9610109565b6040516100b6919061032f565b60405180910390f35b600047905090565b6000816001436100d79190610396565b406040516020016100e99291906102da565b6040516020818303038152906040528051906020012060001c9050919050565b600060146064610118336100c7565b610122919061044a565b1015610239577fe6b9e1659282e93b3a484308db69e5d1cac21051d45ee0fcb6f72399541cec86336101526100bf565b604051610160929190610306565b60405180910390a160008054906101000a900473ffffffffffffffffffffffffffffffffffffffff1673ffffffffffffffffffffffffffffffffffffffff166108fc600a6101ac6100bf565b6101b69190610365565b9081150290604051600060405180830381858888f193505050501580156101e1573d6000803e3d6000fd5b503373ffffffffffffffffffffffffffffffffffffffff166108fc6102046100bf565b9081150290604051600060405180830381858888f1935050505015801561022f573d6000803e3d6000fd5b506001905061023e565b600090505b90565b600081359050610250816104e6565b92915050565b60006020828403121561026857600080fd5b600061027684828501610241565b91505092915050565b610288816103ca565b82525050565b61029f61029a826103ca565b61041c565b82525050565b6102ae816103dc565b82525050565b6102c56102c0826103e8565b61042e565b82525050565b6102d481610412565b82525050565b60006102e6828561028e565b6014820191506102f682846102b4565b6020820191508190509392505050565b600060408201905061031b600083018561027f565b61032860208301846102cb565b9392505050565b600060208201905061034460008301846102a5565b92915050565b600060208201905061035f60008301846102cb565b92915050565b600061037082610412565b915061037b83610412565b92508261038b5761038a6104aa565b5b828204905092915050565b60006103a182610412565b91506103ac83610412565b9250828210156103bf576103be61047b565b5b828203905092915050565b60006103d5826103f2565b9050919050565b60008115159050919050565b6000819050919050565b600073ffffffffffffffffffffffffffffffffffffffff82169050919050565b6000819050919050565b600061042782610438565b9050919050565b6000819050919050565b6000610443826104d9565b9050919050565b600061045582610412565b915061046083610412565b9250826104705761046f6104aa565b5b828206905092915050565b7f4e487b7100000000000000000000000000000000000000000000000000000000600052601160045260246000fd5b7f4e487b7100000000000000000000000000000000000000000000000000000000600052601260045260246000fd5b60008160601b9050919050565b6104ef816103ca565b81146104fa57600080fd5b5056fea2646970667358221220ff87cf37db168c5b83ba2e9299892ab9aeda2529d96d88a9c0673ba3c48b1f6764736f6c63430008030033",
    "immutableReferences": {},
    "source": "pragma solidity >=0.8.0;\n\ncontract FomoGame {\n  address owner;\n  constructor() payable {\n    owner = msg.sender;\n  }\n\n  event NewWinner(address winner,uint256 pay);\n  function play() public payable returns(bool){\n    if(getRandomSeed(msg.sender) % 100 < 20){\n      emit NewWinner(msg.sender,pool());\n      payable(owner).transfer(pool() / 10);\n      payable(msg.sender).transfer(pool());\n      return true;\n    }\n    return false;\n  }\n\n  function pool() public view returns(uint256) {\n    return address(this).balance;\n  }\n\n  function getRandomSeed(address user) public view returns (uint256) {\n    return uint256(keccak256(abi.encodePacked(user, blockhash(block.number - 1))));\n  }\n}",
    "sourcePath": "/Users/chenzhiyuan/hackthon/nervos/blockchain-workshop-ethereum-simple/contracts/FomoGame.sol",
    "compiler": {
        "name": "solc",
        "version": "0.8.3+commit.8d00100c.Linux.g++"
    },
    "schemaVersion": "3.3.4",
    "updatedAt": "2021-08-10T03:41:45.084Z",
    "devdoc": {
        "kind": "dev",
        "methods": {},
        "version": 1
    },
    "userdoc": {
        "kind": "user",
        "methods": {},
        "version": 1
    }
}